{
  "address": "0xa79A9CF0073998c412a2bb835873a0A51C02a473",
  "abi": [
    {
      "inputs": [
        {
          "internalType": "address",
          "name": "_endpoint",
          "type": "address"
        },
        {
          "internalType": "address",
          "name": "_delegate",
          "type": "address"
        }
      ],
      "stateMutability": "nonpayable",
      "type": "constructor"
    },
    {
      "inputs": [],
      "name": "InvalidDelegate",
      "type": "error"
    },
    {
      "inputs": [],
      "name": "InvalidEndpointCall",
      "type": "error"
    },
    {
      "inputs": [
        {
          "internalType": "bytes",
          "name": "options",
          "type": "bytes"
        }
      ],
      "name": "InvalidOptions",
      "type": "error"
    },
    {
      "inputs": [],
      "name": "LzTokenUnavailable",
      "type": "error"
    },
    {
      "inputs": [
        {
          "internalType": "uint32",
          "name": "eid",
          "type": "uint32"
        }
      ],
      "name": "NoPeer",
      "type": "error"
    },
    {
      "inputs": [
        {
          "internalType": "uint256",
          "name": "msgValue",
          "type": "uint256"
        }
      ],
      "name": "NotEnoughNative",
      "type": "error"
    },
    {
      "inputs": [
        {
          "internalType": "address",
          "name": "addr",
          "type": "address"
        }
      ],
      "name": "OnlyEndpoint",
      "type": "error"
    },
    {
      "inputs": [
        {
          "internalType": "uint32",
          "name": "eid",
          "type": "uint32"
        },
        {
          "internalType": "bytes32",
          "name": "sender",
          "type": "bytes32"
        }
      ],
      "name": "OnlyPeer",
      "type": "error"
    },
    {
      "inputs": [
        {
          "internalType": "address",
          "name": "owner",
          "type": "address"
        }
      ],
      "name": "OwnableInvalidOwner",
      "type": "error"
    },
    {
      "inputs": [
        {
          "internalType": "address",
          "name": "account",
          "type": "address"
        }
      ],
      "name": "OwnableUnauthorizedAccount",
      "type": "error"
    },
    {
      "anonymous": false,
      "inputs": [
        {
          "components": [
            {
              "internalType": "uint32",
              "name": "eid",
              "type": "uint32"
            },
            {
              "internalType": "uint16",
              "name": "msgType",
              "type": "uint16"
            },
            {
              "internalType": "bytes",
              "name": "options",
              "type": "bytes"
            }
          ],
          "indexed": false,
          "internalType": "struct EnforcedOptionParam[]",
          "name": "_enforcedOptions",
          "type": "tuple[]"
        }
      ],
      "name": "EnforcedOptionSet",
      "type": "event"
    },
    {
      "anonymous": false,
      "inputs": [
        {
          "indexed": true,
          "internalType": "address",
          "name": "previousOwner",
          "type": "address"
        },
        {
          "indexed": true,
          "internalType": "address",
          "name": "newOwner",
          "type": "address"
        }
      ],
      "name": "OwnershipTransferred",
      "type": "event"
    },
    {
      "anonymous": false,
      "inputs": [
        {
          "indexed": false,
          "internalType": "uint32",
          "name": "eid",
          "type": "uint32"
        },
        {
          "indexed": false,
          "internalType": "bytes32",
          "name": "peer",
          "type": "bytes32"
        }
      ],
      "name": "PeerSet",
      "type": "event"
    },
    {
      "inputs": [
        {
          "components": [
            {
              "internalType": "uint32",
              "name": "srcEid",
              "type": "uint32"
            },
            {
              "internalType": "bytes32",
              "name": "sender",
              "type": "bytes32"
            },
            {
              "internalType": "uint64",
              "name": "nonce",
              "type": "uint64"
            }
          ],
          "internalType": "struct Origin",
          "name": "origin",
          "type": "tuple"
        }
      ],
      "name": "allowInitializePath",
      "outputs": [
        {
          "internalType": "bool",
          "name": "",
          "type": "bool"
        }
      ],
      "stateMutability": "view",
      "type": "function"
    },
    {
      "inputs": [
        {
          "internalType": "uint32",
          "name": "_eid",
          "type": "uint32"
        },
        {
          "internalType": "uint16",
          "name": "_msgType",
          "type": "uint16"
        },
        {
          "internalType": "bytes",
          "name": "_extraOptions",
          "type": "bytes"
        }
      ],
      "name": "combineOptions",
      "outputs": [
        {
          "internalType": "bytes",
          "name": "",
          "type": "bytes"
        }
      ],
      "stateMutability": "view",
      "type": "function"
    },
    {
      "inputs": [],
      "name": "deposit",
      "outputs": [],
      "stateMutability": "nonpayable",
      "type": "function"
    },
    {
      "inputs": [],
      "name": "endpoint",
      "outputs": [
        {
          "internalType": "contract ILayerZeroEndpointV2",
          "name": "",
          "type": "address"
        }
      ],
      "stateMutability": "view",
      "type": "function"
    },
    {
      "inputs": [
        {
          "internalType": "uint32",
          "name": "eid",
          "type": "uint32"
        },
        {
          "internalType": "uint16",
          "name": "msgType",
          "type": "uint16"
        }
      ],
      "name": "enforcedOptions",
      "outputs": [
        {
          "internalType": "bytes",
          "name": "enforcedOption",
          "type": "bytes"
        }
      ],
      "stateMutability": "view",
      "type": "function"
    },
    {
      "inputs": [
        {
          "components": [
            {
              "internalType": "uint32",
              "name": "srcEid",
              "type": "uint32"
            },
            {
              "internalType": "bytes32",
              "name": "sender",
              "type": "bytes32"
            },
            {
              "internalType": "uint64",
              "name": "nonce",
              "type": "uint64"
            }
          ],
          "internalType": "struct Origin",
          "name": "",
          "type": "tuple"
        },
        {
          "internalType": "bytes",
          "name": "",
          "type": "bytes"
        },
        {
          "internalType": "address",
          "name": "_sender",
          "type": "address"
        }
      ],
      "name": "isComposeMsgSender",
      "outputs": [
        {
          "internalType": "bool",
          "name": "",
          "type": "bool"
        }
      ],
      "stateMutability": "view",
      "type": "function"
    },
    {
      "inputs": [
        {
          "components": [
            {
              "internalType": "uint32",
              "name": "srcEid",
              "type": "uint32"
            },
            {
              "internalType": "bytes32",
              "name": "sender",
              "type": "bytes32"
            },
            {
              "internalType": "uint64",
              "name": "nonce",
              "type": "uint64"
            }
          ],
          "internalType": "struct Origin",
          "name": "_origin",
          "type": "tuple"
        },
        {
          "internalType": "bytes32",
          "name": "_guid",
          "type": "bytes32"
        },
        {
          "internalType": "bytes",
          "name": "_message",
          "type": "bytes"
        },
        {
          "internalType": "address",
          "name": "_executor",
          "type": "address"
        },
        {
          "internalType": "bytes",
          "name": "_extraData",
          "type": "bytes"
        }
      ],
      "name": "lzReceive",
      "outputs": [],
      "stateMutability": "payable",
      "type": "function"
    },
    {
      "inputs": [
        {
          "internalType": "uint32",
          "name": "",
          "type": "uint32"
        },
        {
          "internalType": "bytes32",
          "name": "",
          "type": "bytes32"
        }
      ],
      "name": "nextNonce",
      "outputs": [
        {
          "internalType": "uint64",
          "name": "nonce",
          "type": "uint64"
        }
      ],
      "stateMutability": "view",
      "type": "function"
    },
    {
      "inputs": [],
      "name": "oAppVersion",
      "outputs": [
        {
          "internalType": "uint64",
          "name": "senderVersion",
          "type": "uint64"
        },
        {
          "internalType": "uint64",
          "name": "receiverVersion",
          "type": "uint64"
        }
      ],
      "stateMutability": "pure",
      "type": "function"
    },
    {
      "inputs": [],
      "name": "owner",
      "outputs": [
        {
          "internalType": "address",
          "name": "",
          "type": "address"
        }
      ],
      "stateMutability": "view",
      "type": "function"
    },
    {
      "inputs": [
        {
          "internalType": "uint32",
          "name": "eid",
          "type": "uint32"
        }
      ],
      "name": "peers",
      "outputs": [
        {
          "internalType": "bytes32",
          "name": "peer",
          "type": "bytes32"
        }
      ],
      "stateMutability": "view",
      "type": "function"
    },
    {
      "inputs": [],
      "name": "pendingDeposits",
      "outputs": [
        {
          "internalType": "uint256",
          "name": "",
          "type": "uint256"
        }
      ],
      "stateMutability": "view",
      "type": "function"
    },
    {
      "inputs": [],
      "name": "pendingWithdrawals",
      "outputs": [
        {
          "internalType": "uint256",
          "name": "",
          "type": "uint256"
        }
      ],
      "stateMutability": "view",
      "type": "function"
    },
    {
      "inputs": [],
      "name": "renounceOwnership",
      "outputs": [],
      "stateMutability": "nonpayable",
      "type": "function"
    },
    {
      "inputs": [
        {
          "internalType": "address",
          "name": "_delegate",
          "type": "address"
        }
      ],
      "name": "setDelegate",
      "outputs": [],
      "stateMutability": "nonpayable",
      "type": "function"
    },
    {
      "inputs": [
        {
          "components": [
            {
              "internalType": "uint32",
              "name": "eid",
              "type": "uint32"
            },
            {
              "internalType": "uint16",
              "name": "msgType",
              "type": "uint16"
            },
            {
              "internalType": "bytes",
              "name": "options",
              "type": "bytes"
            }
          ],
          "internalType": "struct EnforcedOptionParam[]",
          "name": "_enforcedOptions",
          "type": "tuple[]"
        }
      ],
      "name": "setEnforcedOptions",
      "outputs": [],
      "stateMutability": "nonpayable",
      "type": "function"
    },
    {
      "inputs": [
        {
          "internalType": "uint32",
          "name": "_eid",
          "type": "uint32"
        },
        {
          "internalType": "bytes32",
          "name": "_peer",
          "type": "bytes32"
        }
      ],
      "name": "setPeer",
      "outputs": [],
      "stateMutability": "nonpayable",
      "type": "function"
    },
    {
      "inputs": [
        {
          "internalType": "address",
          "name": "newOwner",
          "type": "address"
        }
      ],
      "name": "transferOwnership",
      "outputs": [],
      "stateMutability": "nonpayable",
      "type": "function"
    },
    {
      "inputs": [],
      "name": "withdraw",
      "outputs": [],
      "stateMutability": "nonpayable",
      "type": "function"
    }
  ],
  "transactionHash": "0x414c60f7a3bb894eedde498a91445e971e5e296e84f8599639e1ad8bb126e62d",
  "args": [
    "0x6EDCE65403992e310A62460808c4b910D972f10f",
    "0xBbBBa9Ebe50f9456E106e6ef2992179182889999"
  ],
  "numDeployments": 1,
  "solcInputHash": "47114631fe1d7dee5bdf88c67ecef7fe",
  "bytecode": "0x60a06040523480156200001157600080fd5b50604051620015b6380380620015b683398101604081905262000034916200017c565b81818181806001600160a01b0381166200006857604051631e4fbdf760e01b81526000600482015260240160405180910390fd5b62000073816200010f565b506001600160a01b038083166080528116620000a257604051632d618d8160e21b815260040160405180910390fd5b60805160405163ca5eb5e160e01b81526001600160a01b0383811660048301529091169063ca5eb5e190602401600060405180830381600087803b158015620000ea57600080fd5b505af1158015620000ff573d6000803e3d6000fd5b50505050505050505050620001b4565b600080546001600160a01b038381166001600160a01b0319831681178455604051919092169283917f8be0079c531659141344cd1fd0a4f28419497f9722a3daafe3b4186f6b6457e09190a35050565b80516001600160a01b03811681146200017757600080fd5b919050565b600080604083850312156200019057600080fd5b6200019b836200015f565b9150620001ab602084016200015f565b90509250929050565b6080516113d8620001de600039600081816101ed015281816103bd015261076001526113d86000f3fe6080604052600436106101145760003560e01c806382413eac116100a0578063beca03d511610064578063beca03d514610330578063ca5eb5e114610346578063d0e30db014610366578063f2fde38b1461037b578063ff7bd03d1461039b57600080fd5b806382413eac146102755780638da5cb5b146102a5578063b98bd070146102c3578063bb0b6a53146102e3578063bc70b3541461031057600080fd5b80635535d461116100e75780635535d4611461018a5780635c074f44146101b75780635e280f11146101db578063715018a6146102275780637d25a05e1461023c57600080fd5b806313137d651461011957806317442b701461012e5780633400288b146101555780633ccfd60b14610175575b600080fd5b61012c610127366004610bf6565b6103bb565b005b34801561013a57600080fd5b50604080516001815260026020820152015b60405180910390f35b34801561016157600080fd5b5061012c610170366004610ca9565b61047b565b34801561018157600080fd5b5061012c610491565b34801561019657600080fd5b506101aa6101a5366004610ce5565b6104a0565b60405161014c9190610d68565b3480156101c357600080fd5b506101cd60035481565b60405190815260200161014c565b3480156101e757600080fd5b5061020f7f000000000000000000000000000000000000000000000000000000000000000081565b6040516001600160a01b03909116815260200161014c565b34801561023357600080fd5b5061012c610545565b34801561024857600080fd5b5061025c610257366004610ca9565b610559565b60405167ffffffffffffffff909116815260200161014c565b34801561028157600080fd5b50610295610290366004610d82565b610562565b604051901515815260200161014c565b3480156102b157600080fd5b506000546001600160a01b031661020f565b3480156102cf57600080fd5b5061012c6102de366004610de8565b610577565b3480156102ef57600080fd5b506101cd6102fe366004610e5d565b60016020526000908152604090205481565b34801561031c57600080fd5b506101aa61032b366004610e78565b610591565b34801561033c57600080fd5b506101cd60045481565b34801561035257600080fd5b5061012c610361366004610ed9565b610739565b34801561037257600080fd5b5061012c6107bf565b34801561038757600080fd5b5061012c610396366004610ed9565b6107ce565b3480156103a757600080fd5b506102956103b6366004610ef4565b61080c565b7f00000000000000000000000000000000000000000000000000000000000000006001600160a01b0316331461040b576040516391ac5e4f60e01b81523360048201526024015b60405180910390fd5b6020870180359061042590610420908a610e5d565b610842565b14610463576104376020880188610e5d565b60405163309afaf360e21b815263ffffffff909116600482015260208801356024820152604401610402565b6104728787878787878761087e565b50505050505050565b610483610969565b61048d8282610996565b5050565b610499610969565b6000600455565b6002602090815260009283526040808420909152908252902080546104c490610f10565b80601f01602080910402602001604051908101604052809291908181526020018280546104f090610f10565b801561053d5780601f106105125761010080835404028352916020019161053d565b820191906000526020600020905b81548152906001019060200180831161052057829003601f168201915b505050505081565b61054d610969565b61055760006109eb565b565b60005b92915050565b6001600160a01b03811630145b949350505050565b61057f610969565b61048d61058c828461100c565b610a3b565b63ffffffff8416600090815260026020908152604080832061ffff871684529091528120805460609291906105c590610f10565b80601f01602080910402602001604051908101604052809291908181526020018280546105f190610f10565b801561063e5780601f106106135761010080835404028352916020019161063e565b820191906000526020600020905b81548152906001019060200180831161062157829003601f168201915b50505050509050805160000361068e5783838080601f01602080910402602001604051908101604052809392919081815260200183838082843760009201919091525092945061056f9350505050565b600083900361069e57905061056f565b6002831061071c576106e584848080601f016020809104026020016040519081016040528093929190818152602001838380828437600092019190915250610b4d92505050565b806106f384600281886110f5565b6040516020016107059392919061111f565b60405160208183030381529060405291505061056f565b8383604051639a6d49cd60e01b8152600401610402929190611147565b610741610969565b60405163ca5eb5e160e01b81526001600160a01b0382811660048301527f0000000000000000000000000000000000000000000000000000000000000000169063ca5eb5e190602401600060405180830381600087803b1580156107a457600080fd5b505af11580156107b8573d6000803e3d6000fd5b5050505050565b6107c7610969565b6000600355565b6107d6610969565b6001600160a01b03811661080057604051631e4fbdf760e01b815260006004820152602401610402565b610809816109eb565b50565b60006020820180359060019083906108249086610e5d565b63ffffffff1681526020810191909152604001600020541492915050565b63ffffffff81166000908152600160205260408120548061055c5760405163f6ff4fb760e01b815263ffffffff84166004820152602401610402565b60008061088d86880188611176565b60408051808201909152600781526611115413d4d25560ca1b60209182015282519083012091935091507f78587ee0b401215c2cbe52e9a97f51cf94fe551533dfa2dd89d630ea822607df016108fa5780600360008282546108ef91906111cf565b9091555061095e9050565b604080518082019091526008815267574954484452415760c01b6020918201528251908301207f85723d98695e1af191e6f48fda60a7095b122a4ddd7f311337d497847167d7970161095e57806004600082825461095891906111cf565b90915550505b505050505050505050565b6000546001600160a01b031633146105575760405163118cdaa760e01b8152336004820152602401610402565b63ffffffff8216600081815260016020908152604091829020849055815192835282018390527f238399d427b947898edb290f5ff0f9109849b1c3ba196a42e35f00c50a54b98b910160405180910390a15050565b600080546001600160a01b038381166001600160a01b0319831681178455604051919092169283917f8be0079c531659141344cd1fd0a4f28419497f9722a3daafe3b4186f6b6457e09190a35050565b60005b8151811015610b1257610a6d828281518110610a5c57610a5c6111f0565b602002602001015160400151610b4d565b818181518110610a7f57610a7f6111f0565b60200260200101516040015160026000848481518110610aa157610aa16111f0565b60200260200101516000015163ffffffff1663ffffffff1681526020019081526020016000206000848481518110610adb57610adb6111f0565b60200260200101516020015161ffff1661ffff1681526020019081526020016000209081610b099190611257565b50600101610a3e565b507fbe4864a8e820971c0247f5992e2da559595f7bf076a21cb5928d443d2a13b67481604051610b429190611317565b60405180910390a150565b600281015161ffff811660031461048d5781604051639a6d49cd60e01b81526004016104029190610d68565b600060608284031215610b8b57600080fd5b50919050565b60008083601f840112610ba357600080fd5b50813567ffffffffffffffff811115610bbb57600080fd5b602083019150836020828501011115610bd357600080fd5b9250929050565b80356001600160a01b0381168114610bf157600080fd5b919050565b600080600080600080600060e0888a031215610c1157600080fd5b610c1b8989610b79565b965060608801359550608088013567ffffffffffffffff80821115610c3f57600080fd5b610c4b8b838c01610b91565b9097509550859150610c5f60a08b01610bda565b945060c08a0135915080821115610c7557600080fd5b50610c828a828b01610b91565b989b979a50959850939692959293505050565b803563ffffffff81168114610bf157600080fd5b60008060408385031215610cbc57600080fd5b610cc583610c95565b946020939093013593505050565b803561ffff81168114610bf157600080fd5b60008060408385031215610cf857600080fd5b610d0183610c95565b9150610d0f60208401610cd3565b90509250929050565b60005b83811015610d33578181015183820152602001610d1b565b50506000910152565b60008151808452610d54816020860160208601610d18565b601f01601f19169290920160200192915050565b602081526000610d7b6020830184610d3c565b9392505050565b60008060008060a08587031215610d9857600080fd5b610da28686610b79565b9350606085013567ffffffffffffffff811115610dbe57600080fd5b610dca87828801610b91565b9094509250610ddd905060808601610bda565b905092959194509250565b60008060208385031215610dfb57600080fd5b823567ffffffffffffffff80821115610e1357600080fd5b818501915085601f830112610e2757600080fd5b813581811115610e3657600080fd5b8660208260051b8501011115610e4b57600080fd5b60209290920196919550909350505050565b600060208284031215610e6f57600080fd5b610d7b82610c95565b60008060008060608587031215610e8e57600080fd5b610e9785610c95565b9350610ea560208601610cd3565b9250604085013567ffffffffffffffff811115610ec157600080fd5b610ecd87828801610b91565b95989497509550505050565b600060208284031215610eeb57600080fd5b610d7b82610bda565b600060608284031215610f0657600080fd5b610d7b8383610b79565b600181811c90821680610f2457607f821691505b602082108103610b8b57634e487b7160e01b600052602260045260246000fd5b634e487b7160e01b600052604160045260246000fd5b6040516060810167ffffffffffffffff81118282101715610f7d57610f7d610f44565b60405290565b604051601f8201601f1916810167ffffffffffffffff81118282101715610fac57610fac610f44565b604052919050565b600067ffffffffffffffff831115610fce57610fce610f44565b610fe1601f8401601f1916602001610f83565b9050828152838383011115610ff557600080fd5b828260208301376000602084830101529392505050565b600067ffffffffffffffff8084111561102757611027610f44565b8360051b6020611038818301610f83565b86815291850191818101903684111561105057600080fd5b865b848110156110e95780358681111561106a5760008081fd5b8801606036829003121561107e5760008081fd5b611086610f5a565b61108f82610c95565b815261109c868301610cd3565b86820152604080830135898111156110b45760008081fd5b929092019136601f8401126110c95760008081fd5b6110d7368435898601610fb4565b90820152845250918301918301611052565b50979650505050505050565b6000808585111561110557600080fd5b8386111561111257600080fd5b5050820193919092039150565b60008451611131818460208901610d18565b8201838582376000930192835250909392505050565b60208152816020820152818360408301376000818301604090810191909152601f909201601f19160101919050565b6000806040838503121561118957600080fd5b823567ffffffffffffffff8111156111a057600080fd5b8301601f810185136111b157600080fd5b6111c085823560208401610fb4565b95602094909401359450505050565b8082018082111561055c57634e487b7160e01b600052601160045260246000fd5b634e487b7160e01b600052603260045260246000fd5b601f821115611252576000816000526020600020601f850160051c8101602086101561122f5750805b601f850160051c820191505b8181101561124e5782815560010161123b565b5050505b505050565b815167ffffffffffffffff81111561127157611271610f44565b6112858161127f8454610f10565b84611206565b602080601f8311600181146112ba57600084156112a25750858301515b600019600386901b1c1916600185901b17855561124e565b600085815260208120601f198616915b828110156112e9578886015182559484019460019091019084016112ca565b50858210156113075787850151600019600388901b60f8161c191681555b5050505050600190811b01905550565b600060208083018184528085518083526040925060408601915060408160051b87010184880160005b8381101561139457888303603f190185528151805163ffffffff1684528781015161ffff1688850152860151606087850181905261138081860183610d3c565b968901969450505090860190600101611340565b50909897505050505050505056fea2646970667358221220f84afcf4f3b3573df3bc49062ee23fde8e9a4e758ded6a7c529d5d1c45f6ff6d64736f6c63430008160033",
  "devdoc": {
    "errors": {
      "OwnableInvalidOwner(address)": [
        {
          "details": "The owner is not a valid owner account. (eg. `address(0)`)"
        }
      ],
      "OwnableUnauthorizedAccount(address)": [
        {
          "details": "The caller account is not authorized to perform an operation."
        }
      ]
    },
    "kind": "dev",
    "methods": {
      "allowInitializePath((uint32,bytes32,uint64))": {
        "details": "This indicates to the endpoint that the OApp has enabled msgs for this particular path to be received.This defaults to assuming if a peer has been set, its initialized. Can be overridden by the OApp if there is other logic to determine this.",
        "params": {
          "origin": "The origin information containing the source endpoint and sender address."
        },
        "returns": {
          "_0": "Whether the path has been initialized."
        }
      },
      "combineOptions(uint32,uint16,bytes)": {
        "details": "If there is an enforced lzReceive option: - {gasLimit: 200k, msg.value: 1 ether} AND a caller supplies a lzReceive option: {gasLimit: 100k, msg.value: 0.5 ether} - The resulting options will be {gasLimit: 300k, msg.value: 1.5 ether} when the message is executed on the remote lzReceive() function.This presence of duplicated options is handled off-chain in the verifier/executor.",
        "params": {
          "_eid": "The endpoint ID.",
          "_extraOptions": "Additional options passed by the caller.",
          "_msgType": "The OAPP message type."
        },
        "returns": {
          "_0": "options The combination of caller specified options AND enforced options."
        }
      },
      "isComposeMsgSender((uint32,bytes32,uint64),bytes,address)": {
        "details": "_origin The origin information containing the source endpoint and sender address.  - srcEid: The source chain endpoint ID.  - sender: The sender address on the src chain.  - nonce: The nonce of the message._message The lzReceive payload.Applications can optionally choose to implement separate composeMsg senders that are NOT the bridging layer.The default sender IS the OAppReceiver implementer.",
        "params": {
          "_sender": "The sender address."
        },
        "returns": {
          "_0": "isSender Is a valid sender."
        }
      },
      "lzReceive((uint32,bytes32,uint64),bytes32,bytes,address,bytes)": {
        "details": "Entry point for receiving messages or packets from the endpoint.Entry point for receiving msg/packet from the LayerZero endpoint.",
        "params": {
          "_executor": "The address of the executor for the received message.",
          "_extraData": "Additional arbitrary data provided by the corresponding executor.",
          "_guid": "The unique identifier for the received LayerZero message.",
          "_message": "The payload of the received message.",
          "_origin": "The origin information containing the source endpoint and sender address.  - srcEid: The source chain endpoint ID.  - sender: The sender address on the src chain.  - nonce: The nonce of the message."
        }
      },
      "nextNonce(uint32,bytes32)": {
        "details": "_srcEid The source endpoint ID._sender The sender address.The path nonce starts from 1. If 0 is returned it means that there is NO nonce ordered enforcement.Is required by the off-chain executor to determine the OApp expects msg execution is ordered.This is also enforced by the OApp.By default this is NOT enabled. ie. nextNonce is hardcoded to return 0.",
        "returns": {
          "nonce": "The next nonce."
        }
      },
      "oAppVersion()": {
        "returns": {
          "receiverVersion": "The version of the OAppReceiver.sol implementation.",
          "senderVersion": "The version of the OAppSender.sol implementation."
        }
      },
      "owner()": {
        "details": "Returns the address of the current owner."
      },
      "renounceOwnership()": {
        "details": "Leaves the contract without owner. It will not be possible to call `onlyOwner` functions. Can only be called by the current owner. NOTE: Renouncing ownership will leave the contract without an owner, thereby disabling any functionality that is only available to the owner."
      },
      "setDelegate(address)": {
        "details": "Only the owner/admin of the OApp can call this function.Provides the ability for a delegate to set configs, on behalf of the OApp, directly on the Endpoint contract.",
        "params": {
          "_delegate": "The address of the delegate to be set."
        }
      },
      "setEnforcedOptions((uint32,uint16,bytes)[])": {
        "details": "Sets the enforced options for specific endpoint and message type combinations.Only the owner/admin of the OApp can call this function.Provides a way for the OApp to enforce things like paying for PreCrime, AND/OR minimum dst lzReceive gas amounts etc.These enforced options can vary as the potential options/execution on the remote may differ as per the msgType. eg. Amount of lzReceive() gas necessary to deliver a lzCompose() message adds overhead you dont want to pay if you are only making a standard LayerZero message ie. lzReceive() WITHOUT sendCompose().",
        "params": {
          "_enforcedOptions": "An array of EnforcedOptionParam structures specifying enforced options."
        }
      },
      "setPeer(uint32,bytes32)": {
        "details": "Only the owner/admin of the OApp can call this function.Indicates that the peer is trusted to send LayerZero messages to this OApp.Set this to bytes32(0) to remove the peer address.Peer is a bytes32 to accommodate non-evm chains.",
        "params": {
          "_eid": "The endpoint ID.",
          "_peer": "The address of the peer to be associated with the corresponding endpoint."
        }
      },
      "transferOwnership(address)": {
        "details": "Transfers ownership of the contract to a new account (`newOwner`). Can only be called by the current owner."
      }
    },
    "version": 1
  },
  "userdoc": {
    "kind": "user",
    "methods": {
      "allowInitializePath((uint32,bytes32,uint64))": {
        "notice": "Checks if the path initialization is allowed based on the provided origin."
      },
      "combineOptions(uint32,uint16,bytes)": {
        "notice": "Combines options for a given endpoint and message type."
      },
      "endpoint()": {
        "notice": "Retrieves the LayerZero endpoint associated with the OApp."
      },
      "isComposeMsgSender((uint32,bytes32,uint64),bytes,address)": {
        "notice": "Indicates whether an address is an approved composeMsg sender to the Endpoint."
      },
      "nextNonce(uint32,bytes32)": {
        "notice": "Retrieves the next nonce for a given source endpoint and sender address."
      },
      "oAppVersion()": {
        "notice": "Retrieves the OApp version information."
      },
      "peers(uint32)": {
        "notice": "Retrieves the peer (OApp) associated with a corresponding endpoint."
      },
      "setDelegate(address)": {
        "notice": "Sets the delegate address for the OApp."
      },
      "setPeer(uint32,bytes32)": {
        "notice": "Sets the peer address (OApp instance) for a corresponding endpoint."
      }
    },
    "version": 1
  },
  "storageLayout": {
    "storage": [
      {
        "astId": 6226,
        "contract": "contracts/OOperator.sol:OOperator",
        "label": "_owner",
        "offset": 0,
        "slot": "0",
        "type": "t_address"
      },
      {
        "astId": 5056,
        "contract": "contracts/OOperator.sol:OOperator",
        "label": "peers",
        "offset": 0,
        "slot": "1",
        "type": "t_mapping(t_uint32,t_bytes32)"
      },
      {
        "astId": 5652,
        "contract": "contracts/OOperator.sol:OOperator",
        "label": "enforcedOptions",
        "offset": 0,
        "slot": "2",
        "type": "t_mapping(t_uint32,t_mapping(t_uint16,t_bytes_storage))"
      },
      {
        "astId": 11135,
        "contract": "contracts/OOperator.sol:OOperator",
        "label": "pendingDeposits",
        "offset": 0,
        "slot": "3",
        "type": "t_uint256"
      },
      {
        "astId": 11137,
        "contract": "contracts/OOperator.sol:OOperator",
        "label": "pendingWithdrawals",
        "offset": 0,
        "slot": "4",
        "type": "t_uint256"
      }
    ],
    "types": {
      "t_address": {
        "encoding": "inplace",
        "label": "address",
        "numberOfBytes": "20"
      },
      "t_bytes32": {
        "encoding": "inplace",
        "label": "bytes32",
        "numberOfBytes": "32"
      },
      "t_bytes_storage": {
        "encoding": "bytes",
        "label": "bytes",
        "numberOfBytes": "32"
      },
      "t_mapping(t_uint16,t_bytes_storage)": {
        "encoding": "mapping",
        "key": "t_uint16",
        "label": "mapping(uint16 => bytes)",
        "numberOfBytes": "32",
        "value": "t_bytes_storage"
      },
      "t_mapping(t_uint32,t_bytes32)": {
        "encoding": "mapping",
        "key": "t_uint32",
        "label": "mapping(uint32 => bytes32)",
        "numberOfBytes": "32",
        "value": "t_bytes32"
      },
      "t_mapping(t_uint32,t_mapping(t_uint16,t_bytes_storage))": {
        "encoding": "mapping",
        "key": "t_uint32",
        "label": "mapping(uint32 => mapping(uint16 => bytes))",
        "numberOfBytes": "32",
        "value": "t_mapping(t_uint16,t_bytes_storage)"
      },
      "t_uint16": {
        "encoding": "inplace",
        "label": "uint16",
        "numberOfBytes": "2"
      },
      "t_uint256": {
        "encoding": "inplace",
        "label": "uint256",
        "numberOfBytes": "32"
      },
      "t_uint32": {
        "encoding": "inplace",
        "label": "uint32",
        "numberOfBytes": "4"
      }
    }
  }
}