{
  "address": "0xca157579b97472564DA1F63CDEaFf917E23aD70e",
  "abi": [
    {
      "inputs": [
        {
          "internalType": "address",
          "name": "_endpoint",
          "type": "address"
        },
        {
          "internalType": "address",
          "name": "_delegate",
          "type": "address"
        },
        {
          "internalType": "address",
          "name": "_ousdt",
          "type": "address"
        },
        {
          "internalType": "address",
          "name": "_superstate",
          "type": "address"
        }
      ],
      "stateMutability": "nonpayable",
      "type": "constructor"
    },
    {
      "inputs": [],
      "name": "InvalidDelegate",
      "type": "error"
    },
    {
      "inputs": [],
      "name": "InvalidEndpointCall",
      "type": "error"
    },
    {
      "inputs": [
        {
          "internalType": "uint16",
          "name": "optionType",
          "type": "uint16"
        }
      ],
      "name": "InvalidOptionType",
      "type": "error"
    },
    {
      "inputs": [
        {
          "internalType": "bytes",
          "name": "options",
          "type": "bytes"
        }
      ],
      "name": "InvalidOptions",
      "type": "error"
    },
    {
      "inputs": [],
      "name": "LzTokenUnavailable",
      "type": "error"
    },
    {
      "inputs": [
        {
          "internalType": "uint32",
          "name": "eid",
          "type": "uint32"
        }
      ],
      "name": "NoPeer",
      "type": "error"
    },
    {
      "inputs": [
        {
          "internalType": "uint256",
          "name": "msgValue",
          "type": "uint256"
        }
      ],
      "name": "NotEnoughNative",
      "type": "error"
    },
    {
      "inputs": [
        {
          "internalType": "address",
          "name": "addr",
          "type": "address"
        }
      ],
      "name": "OnlyEndpoint",
      "type": "error"
    },
    {
      "inputs": [
        {
          "internalType": "uint32",
          "name": "eid",
          "type": "uint32"
        },
        {
          "internalType": "bytes32",
          "name": "sender",
          "type": "bytes32"
        }
      ],
      "name": "OnlyPeer",
      "type": "error"
    },
    {
      "inputs": [
        {
          "internalType": "address",
          "name": "owner",
          "type": "address"
        }
      ],
      "name": "OwnableInvalidOwner",
      "type": "error"
    },
    {
      "inputs": [
        {
          "internalType": "address",
          "name": "account",
          "type": "address"
        }
      ],
      "name": "OwnableUnauthorizedAccount",
      "type": "error"
    },
    {
      "inputs": [
        {
          "internalType": "uint8",
          "name": "bits",
          "type": "uint8"
        },
        {
          "internalType": "uint256",
          "name": "value",
          "type": "uint256"
        }
      ],
      "name": "SafeCastOverflowedUintDowncast",
      "type": "error"
    },
    {
      "anonymous": false,
      "inputs": [
        {
          "indexed": false,
          "internalType": "uint256",
          "name": "amount",
          "type": "uint256"
        }
      ],
      "name": "Deposited",
      "type": "event"
    },
    {
      "anonymous": false,
      "inputs": [
        {
          "components": [
            {
              "internalType": "uint32",
              "name": "eid",
              "type": "uint32"
            },
            {
              "internalType": "uint16",
              "name": "msgType",
              "type": "uint16"
            },
            {
              "internalType": "bytes",
              "name": "options",
              "type": "bytes"
            }
          ],
          "indexed": false,
          "internalType": "struct EnforcedOptionParam[]",
          "name": "_enforcedOptions",
          "type": "tuple[]"
        }
      ],
      "name": "EnforcedOptionSet",
      "type": "event"
    },
    {
      "anonymous": false,
      "inputs": [
        {
          "indexed": true,
          "internalType": "address",
          "name": "previousOwner",
          "type": "address"
        },
        {
          "indexed": true,
          "internalType": "address",
          "name": "newOwner",
          "type": "address"
        }
      ],
      "name": "OwnershipTransferred",
      "type": "event"
    },
    {
      "anonymous": false,
      "inputs": [
        {
          "indexed": false,
          "internalType": "uint32",
          "name": "eid",
          "type": "uint32"
        },
        {
          "indexed": false,
          "internalType": "bytes32",
          "name": "peer",
          "type": "bytes32"
        }
      ],
      "name": "PeerSet",
      "type": "event"
    },
    {
      "anonymous": false,
      "inputs": [
        {
          "indexed": true,
          "internalType": "address",
          "name": "to",
          "type": "address"
        },
        {
          "indexed": false,
          "internalType": "uint256",
          "name": "amount",
          "type": "uint256"
        }
      ],
      "name": "Withdrawn",
      "type": "event"
    },
    {
      "inputs": [
        {
          "components": [
            {
              "internalType": "uint32",
              "name": "srcEid",
              "type": "uint32"
            },
            {
              "internalType": "bytes32",
              "name": "sender",
              "type": "bytes32"
            },
            {
              "internalType": "uint64",
              "name": "nonce",
              "type": "uint64"
            }
          ],
          "internalType": "struct Origin",
          "name": "origin",
          "type": "tuple"
        }
      ],
      "name": "allowInitializePath",
      "outputs": [
        {
          "internalType": "bool",
          "name": "",
          "type": "bool"
        }
      ],
      "stateMutability": "view",
      "type": "function"
    },
    {
      "inputs": [
        {
          "internalType": "uint32",
          "name": "_eid",
          "type": "uint32"
        },
        {
          "internalType": "uint16",
          "name": "_msgType",
          "type": "uint16"
        },
        {
          "internalType": "bytes",
          "name": "_extraOptions",
          "type": "bytes"
        }
      ],
      "name": "combineOptions",
      "outputs": [
        {
          "internalType": "bytes",
          "name": "",
          "type": "bytes"
        }
      ],
      "stateMutability": "view",
      "type": "function"
    },
    {
      "inputs": [],
      "name": "endpoint",
      "outputs": [
        {
          "internalType": "contract ILayerZeroEndpointV2",
          "name": "",
          "type": "address"
        }
      ],
      "stateMutability": "view",
      "type": "function"
    },
    {
      "inputs": [
        {
          "internalType": "uint32",
          "name": "eid",
          "type": "uint32"
        },
        {
          "internalType": "uint16",
          "name": "msgType",
          "type": "uint16"
        }
      ],
      "name": "enforcedOptions",
      "outputs": [
        {
          "internalType": "bytes",
          "name": "enforcedOption",
          "type": "bytes"
        }
      ],
      "stateMutability": "view",
      "type": "function"
    },
    {
      "inputs": [
        {
          "components": [
            {
              "internalType": "uint32",
              "name": "srcEid",
              "type": "uint32"
            },
            {
              "internalType": "bytes32",
              "name": "sender",
              "type": "bytes32"
            },
            {
              "internalType": "uint64",
              "name": "nonce",
              "type": "uint64"
            }
          ],
          "internalType": "struct Origin",
          "name": "",
          "type": "tuple"
        },
        {
          "internalType": "bytes",
          "name": "",
          "type": "bytes"
        },
        {
          "internalType": "address",
          "name": "_sender",
          "type": "address"
        }
      ],
      "name": "isComposeMsgSender",
      "outputs": [
        {
          "internalType": "bool",
          "name": "",
          "type": "bool"
        }
      ],
      "stateMutability": "view",
      "type": "function"
    },
    {
      "inputs": [
        {
          "internalType": "address",
          "name": "_from",
          "type": "address"
        },
        {
          "internalType": "bytes32",
          "name": "_guid",
          "type": "bytes32"
        },
        {
          "internalType": "bytes",
          "name": "_message",
          "type": "bytes"
        },
        {
          "internalType": "address",
          "name": "_executor",
          "type": "address"
        },
        {
          "internalType": "bytes",
          "name": "_extraData",
          "type": "bytes"
        }
      ],
      "name": "lzCompose",
      "outputs": [],
      "stateMutability": "payable",
      "type": "function"
    },
    {
      "inputs": [
        {
          "components": [
            {
              "internalType": "uint32",
              "name": "srcEid",
              "type": "uint32"
            },
            {
              "internalType": "bytes32",
              "name": "sender",
              "type": "bytes32"
            },
            {
              "internalType": "uint64",
              "name": "nonce",
              "type": "uint64"
            }
          ],
          "internalType": "struct Origin",
          "name": "_origin",
          "type": "tuple"
        },
        {
          "internalType": "bytes32",
          "name": "_guid",
          "type": "bytes32"
        },
        {
          "internalType": "bytes",
          "name": "_message",
          "type": "bytes"
        },
        {
          "internalType": "address",
          "name": "_executor",
          "type": "address"
        },
        {
          "internalType": "bytes",
          "name": "_extraData",
          "type": "bytes"
        }
      ],
      "name": "lzReceive",
      "outputs": [],
      "stateMutability": "payable",
      "type": "function"
    },
    {
      "inputs": [
        {
          "internalType": "uint32",
          "name": "",
          "type": "uint32"
        },
        {
          "internalType": "bytes32",
          "name": "",
          "type": "bytes32"
        }
      ],
      "name": "nextNonce",
      "outputs": [
        {
          "internalType": "uint64",
          "name": "nonce",
          "type": "uint64"
        }
      ],
      "stateMutability": "view",
      "type": "function"
    },
    {
      "inputs": [],
      "name": "oAppVersion",
      "outputs": [
        {
          "internalType": "uint64",
          "name": "senderVersion",
          "type": "uint64"
        },
        {
          "internalType": "uint64",
          "name": "receiverVersion",
          "type": "uint64"
        }
      ],
      "stateMutability": "pure",
      "type": "function"
    },
    {
      "inputs": [],
      "name": "ousdt",
      "outputs": [
        {
          "internalType": "contract OFT",
          "name": "",
          "type": "address"
        }
      ],
      "stateMutability": "view",
      "type": "function"
    },
    {
      "inputs": [],
      "name": "owner",
      "outputs": [
        {
          "internalType": "address",
          "name": "",
          "type": "address"
        }
      ],
      "stateMutability": "view",
      "type": "function"
    },
    {
      "inputs": [
        {
          "internalType": "uint32",
          "name": "eid",
          "type": "uint32"
        }
      ],
      "name": "peers",
      "outputs": [
        {
          "internalType": "bytes32",
          "name": "peer",
          "type": "bytes32"
        }
      ],
      "stateMutability": "view",
      "type": "function"
    },
    {
      "inputs": [],
      "name": "renounceOwnership",
      "outputs": [],
      "stateMutability": "nonpayable",
      "type": "function"
    },
    {
      "inputs": [
        {
          "internalType": "address",
          "name": "_delegate",
          "type": "address"
        }
      ],
      "name": "setDelegate",
      "outputs": [],
      "stateMutability": "nonpayable",
      "type": "function"
    },
    {
      "inputs": [
        {
          "components": [
            {
              "internalType": "uint32",
              "name": "eid",
              "type": "uint32"
            },
            {
              "internalType": "uint16",
              "name": "msgType",
              "type": "uint16"
            },
            {
              "internalType": "bytes",
              "name": "options",
              "type": "bytes"
            }
          ],
          "internalType": "struct EnforcedOptionParam[]",
          "name": "_enforcedOptions",
          "type": "tuple[]"
        }
      ],
      "name": "setEnforcedOptions",
      "outputs": [],
      "stateMutability": "nonpayable",
      "type": "function"
    },
    {
      "inputs": [
        {
          "internalType": "uint32",
          "name": "_eid",
          "type": "uint32"
        },
        {
          "internalType": "bytes32",
          "name": "_peer",
          "type": "bytes32"
        }
      ],
      "name": "setPeer",
      "outputs": [],
      "stateMutability": "nonpayable",
      "type": "function"
    },
    {
      "inputs": [],
      "name": "superstate",
      "outputs": [
        {
          "internalType": "contract Superstate",
          "name": "",
          "type": "address"
        }
      ],
      "stateMutability": "view",
      "type": "function"
    },
    {
      "inputs": [
        {
          "internalType": "address",
          "name": "newOwner",
          "type": "address"
        }
      ],
      "name": "transferOwnership",
      "outputs": [],
      "stateMutability": "nonpayable",
      "type": "function"
    },
    {
      "stateMutability": "payable",
      "type": "receive"
    }
  ],
  "transactionHash": "0x7f4eb5aa39e518804b996252fa4840841bfb892b285eca502066c06018f397af",
  "args": [
    "0x6EDCE65403992e310A62460808c4b910D972f10f",
    "0xBbBBa9Ebe50f9456E106e6ef2992179182889999",
    "0x32f5F1469D5Ce1Fa80F7E06F8360DDe0d6E63875",
    "0x9043fDeaB665C0435c85f4961f3aCFe55559f398"
  ],
  "numDeployments": 1,
  "solcInputHash": "6b37625496f83d314f14b0bf15027b27",
  "bytecode": "0x60a06040523480156200001157600080fd5b506040516200205e3803806200205e8339810160408190526200003491620001ad565b83838181806001600160a01b0381166200006857604051631e4fbdf760e01b81526000600482015260240160405180910390fd5b620000738162000140565b506001600160a01b038083166080528116620000a257604051632d618d8160e21b815260040160405180910390fd5b60805160405163ca5eb5e160e01b81526001600160a01b0383811660048301529091169063ca5eb5e190602401600060405180830381600087803b158015620000ea57600080fd5b505af1158015620000ff573d6000803e3d6000fd5b5050600380546001600160a01b03998a166001600160a01b0319918216179091556004805498909916971696909617909655506200020a9650505050505050565b600080546001600160a01b038381166001600160a01b0319831681178455604051919092169283917f8be0079c531659141344cd1fd0a4f28419497f9722a3daafe3b4186f6b6457e09190a35050565b80516001600160a01b0381168114620001a857600080fd5b919050565b60008060008060808587031215620001c457600080fd5b620001cf8562000190565b9350620001df6020860162000190565b9250620001ef6040860162000190565b9150620001ff6060860162000190565b905092959194509250565b608051611e236200023b600039600081816101ec015281816103b90152818161074d01526107b70152611e236000f3fe60806040526004361061010d5760003560e01c80638da5cb5b11610095578063c4472f6f11610064578063c4472f6f14610324578063ca5eb5e114610344578063d0a1026014610364578063f2fde38b14610377578063ff7bd03d1461039757600080fd5b80638da5cb5b1461028b578063b98bd070146102a9578063bb0b6a53146102c9578063bc70b3541461030457600080fd5b80635535d461116100dc5780635535d461146101ad5780635e280f11146101da578063715018a61461020e5780637d25a05e1461022357806382413eac1461025b57600080fd5b806313137d651461011957806317442b701461012e5780633400288b146101555780634c7e155b1461017557600080fd5b3661011457005b600080fd5b61012c6101273660046112b7565b6103b7565b005b34801561013a57600080fd5b50604080516001815260026020820152015b60405180910390f35b34801561016157600080fd5b5061012c61017036600461136f565b610477565b34801561018157600080fd5b50600354610195906001600160a01b031681565b6040516001600160a01b03909116815260200161014c565b3480156101b957600080fd5b506101cd6101c83660046113ab565b61048d565b60405161014c919061142e565b3480156101e657600080fd5b506101957f000000000000000000000000000000000000000000000000000000000000000081565b34801561021a57600080fd5b5061012c610532565b34801561022f57600080fd5b5061024361023e36600461136f565b610546565b6040516001600160401b03909116815260200161014c565b34801561026757600080fd5b5061027b610276366004611441565b61054f565b604051901515815260200161014c565b34801561029757600080fd5b506000546001600160a01b0316610195565b3480156102b557600080fd5b5061012c6102c43660046114a7565b610564565b3480156102d557600080fd5b506102f66102e436600461151b565b60016020526000908152604090205481565b60405190815260200161014c565b34801561031057600080fd5b506101cd61031f366004611536565b61057e565b34801561033057600080fd5b50600454610195906001600160a01b031681565b34801561035057600080fd5b5061012c61035f366004611596565b610726565b61012c6103723660046115b3565b6107ac565b34801561038357600080fd5b5061012c610392366004611596565b610a07565b3480156103a357600080fd5b5061027b6103b2366004611633565b610a45565b7f00000000000000000000000000000000000000000000000000000000000000006001600160a01b03163314610407576040516391ac5e4f60e01b81523360048201526024015b60405180910390fd5b602087018035906104219061041c908a61151b565b610a7b565b1461045f57610433602088018861151b565b60405163309afaf360e21b815263ffffffff9091166004820152602088013560248201526044016103fe565b61046e87878787878787610ab7565b50505050505050565b61047f610b3e565b6104898282610b6b565b5050565b6002602090815260009283526040808420909152908252902080546104b19061164f565b80601f01602080910402602001604051908101604052809291908181526020018280546104dd9061164f565b801561052a5780601f106104ff5761010080835404028352916020019161052a565b820191906000526020600020905b81548152906001019060200180831161050d57829003601f168201915b505050505081565b61053a610b3e565b6105446000610bc0565b565b60005b92915050565b6001600160a01b03811630145b949350505050565b61056c610b3e565b6104896105798284611756565b610c10565b63ffffffff8416600090815260026020908152604080832061ffff871684529091528120805460609291906105b29061164f565b80601f01602080910402602001604051908101604052809291908181526020018280546105de9061164f565b801561062b5780601f106106005761010080835404028352916020019161062b565b820191906000526020600020905b81548152906001019060200180831161060e57829003601f168201915b50505050509050805160000361067b5783838080601f01602080910402602001604051908101604052809392919081815260200183838082843760009201919091525092945061055c9350505050565b600083900361068b57905061055c565b60028310610709576106d284848080601f016020809104026020016040519081016040528093929190818152602001838380828437600092019190915250610d2292505050565b806106e0846002818861183e565b6040516020016106f293929190611868565b60405160208183030381529060405291505061055c565b8383604051639a6d49cd60e01b81526004016103fe929190611890565b61072e610b3e565b60405163ca5eb5e160e01b81526001600160a01b0382811660048301527f0000000000000000000000000000000000000000000000000000000000000000169063ca5eb5e190602401600060405180830381600087803b15801561079157600080fd5b505af11580156107a5573d6000803e3d6000fd5b5050505050565b336001600160a01b037f0000000000000000000000000000000000000000000000000000000000000000161461083b5760405162461bcd60e51b815260206004820152602e60248201527f4f4f70657261746f7256323a2063616c6c6572206d757374206265204c61796560448201526d1c96995c9bc8195b991c1bda5b9d60921b60648201526084016103fe565b6000806108488787610d4e565b80602001905181019061085b91906118bf565b60408051808201909152600781526611115413d4d25560ca1b60209182015282519083012091935091507f78587ee0b401215c2cbe52e9a97f51cf94fe551533dfa2dd89d630ea822607df016109fc576003546004805460405163095ea7b360e01b81526001600160a01b0391821692810192909252602482018490529091169063095ea7b3906044016020604051808303816000875af1158015610904573d6000803e3d6000fd5b505050506040513d601f19601f82011682018060405250810190610928919061193f565b6109665760405162461bcd60e51b815260206004820152600f60248201526e105c1c1c9bdd985b0819985a5b1959608a1b60448201526064016103fe565b6004805460405163b6b55f2560e01b81529182018390526001600160a01b03169063b6b55f2590602401600060405180830381600087803b1580156109aa57600080fd5b505af11580156109be573d6000803e3d6000fd5b505050507f2a89b2e3d580398d6dc2db5e0f336b52602bbaa51afa9bb5cdf59239cf0d2bea816040516109f391815260200190565b60405180910390a15b505050505050505050565b610a0f610b3e565b6001600160a01b038116610a3957604051631e4fbdf760e01b8152600060048201526024016103fe565b610a4281610bc0565b50565b6000602082018035906001908390610a5d908661151b565b63ffffffff1681526020810191909152604001600020541492915050565b63ffffffff8116600090815260016020526040812054806105495760405163f6ff4fb760e01b815263ffffffff841660048201526024016103fe565b60008080610ac787890189611961565b604080518082019091526008815267574954484452415760c01b60209182015283519084012092955090935091507f85723d98695e1af191e6f48fda60a7095b122a4ddd7f311337d497847167d79701610b3257610b328183610b2d60208e018e61151b565b610d99565b50505050505050505050565b6000546001600160a01b031633146105445760405163118cdaa760e01b81523360048201526024016103fe565b63ffffffff8216600081815260016020908152604091829020849055815192835282018390527f238399d427b947898edb290f5ff0f9109849b1c3ba196a42e35f00c50a54b98b910160405180910390a15050565b600080546001600160a01b038381166001600160a01b0319831681178455604051919092169283917f8be0079c531659141344cd1fd0a4f28419497f9722a3daafe3b4186f6b6457e09190a35050565b60005b8151811015610ce757610c42828281518110610c3157610c316119cf565b602002602001015160400151610d22565b818181518110610c5457610c546119cf565b60200260200101516040015160026000848481518110610c7657610c766119cf565b60200260200101516000015163ffffffff1663ffffffff1681526020019081526020016000206000848481518110610cb057610cb06119cf565b60200260200101516020015161ffff1661ffff1681526020019081526020016000209081610cde9190611a36565b50600101610c13565b507fbe4864a8e820971c0247f5992e2da559595f7bf076a21cb5928d443d2a13b67481604051610d179190611af5565b60405180910390a150565b600281015161ffff81166003146104895781604051639a6d49cd60e01b81526004016103fe919061142e565b6060610d5d82604c818661183e565b8080601f016020809104026020016040519081016040528093929190818152602001838380828437600092019190915250929695505050505050565b60008211610de95760405162461bcd60e51b815260206004820152601d60248201527f416d6f756e74206d7573742062652067726561746572207468616e203000000060448201526064016103fe565b60048054604051632e1a7d4d60e01b81529182018490526001600160a01b031690632e1a7d4d90602401600060405180830381600087803b158015610e2d57600080fd5b505af1158015610e41573d6000803e3d6000fd5b50505050610e50838383610e98565b826001600160a01b03167f7084f5476618d8e60b11ef0d7d3f06914655adb8793e28ff7f018d4c76d505d583604051610e8b91815260200190565b60405180910390a2505050565b6000610ed062030d406000610ec960408051600360f01b602082015281516002818303018152602290910190915290565b919061105d565b6040805160e08101825263ffffffff851681526001600160a01b03808816602080840191909152828401889052600060608401819052608084018690528451808301865281815260a08501528451918201855280825260c08401919091526003549351633b6f743b60e01b8152949550919391921690633b6f743b90610f5c9085908590600401611bff565b6040805180830381865afa158015610f78573d6000803e3d6000fd5b505050506040513d601f19601f82011682018060405250810190610f9c9190611c71565b805190915034811115610fe45760405162461bcd60e51b815260206004820152601060248201526f496e73756666696369656e742066656560801b60448201526064016103fe565b60035460405163c7c7f5b360e01b81526001600160a01b039091169063c7c7f5b390839061101a90879087908d90600401611c8d565b60c06040518083038185885af1158015611038573d6000803e3d6000fd5b50505050506040513d601f19601f820116820180604052508101906109fc9190611ccc565b606083600361106d8260006110c5565b61ffff16146110a1576110818160006110c5565b604051633a51740d60e01b815261ffff90911660048201526024016103fe565b60006110ad8585611122565b90506110bb866001836111a4565b9695505050505050565b60006110d2826002611d51565b835110156111195760405162461bcd60e51b8152602060048201526014602482015273746f55696e7431365f6f75744f66426f756e647360601b60448201526064016103fe565b50016002015190565b60606fffffffffffffffffffffffffffffffff82161561117357604080516001600160801b0319608086811b8216602084015285901b1660308201520160405160208183030381529060405261119d565b6040516001600160801b0319608085901b1660208201526030016040516020818303038152906040525b9392505050565b60608360036111b48260006110c5565b61ffff16146111c8576110818160006110c5565b8460016111d5855161120f565b6111e0906001611d64565b86866040516020016111f6959493929190611d86565b6040516020818303038152906040529150509392505050565b600061ffff82111561123e576040516306dfcc6560e41b815260106004820152602481018390526044016103fe565b5090565b60006060828403121561125457600080fd5b50919050565b60008083601f84011261126c57600080fd5b5081356001600160401b0381111561128357600080fd5b60208301915083602082850101111561129b57600080fd5b9250929050565b6001600160a01b0381168114610a4257600080fd5b600080600080600080600060e0888a0312156112d257600080fd5b6112dc8989611242565b96506060880135955060808801356001600160401b03808211156112ff57600080fd5b61130b8b838c0161125a565b909750955060a08a01359150611320826112a2565b90935060c0890135908082111561133657600080fd5b506113438a828b0161125a565b989b979a50959850939692959293505050565b803563ffffffff8116811461136a57600080fd5b919050565b6000806040838503121561138257600080fd5b61138b83611356565b946020939093013593505050565b803561ffff8116811461136a57600080fd5b600080604083850312156113be57600080fd5b6113c783611356565b91506113d560208401611399565b90509250929050565b60005b838110156113f95781810151838201526020016113e1565b50506000910152565b6000815180845261141a8160208601602086016113de565b601f01601f19169290920160200192915050565b60208152600061119d6020830184611402565b60008060008060a0858703121561145757600080fd5b6114618686611242565b935060608501356001600160401b0381111561147c57600080fd5b6114888782880161125a565b909450925050608085013561149c816112a2565b939692955090935050565b600080602083850312156114ba57600080fd5b82356001600160401b03808211156114d157600080fd5b818501915085601f8301126114e557600080fd5b8135818111156114f457600080fd5b8660208260051b850101111561150957600080fd5b60209290920196919550909350505050565b60006020828403121561152d57600080fd5b61119d82611356565b6000806000806060858703121561154c57600080fd5b61155585611356565b935061156360208601611399565b925060408501356001600160401b0381111561157e57600080fd5b61158a8782880161125a565b95989497509550505050565b6000602082840312156115a857600080fd5b813561119d816112a2565b600080600080600080600060a0888a0312156115ce57600080fd5b87356115d9816112a2565b96506020880135955060408801356001600160401b03808211156115fc57600080fd5b6116088b838c0161125a565b909750955060608a0135915061161d826112a2565b9093506080890135908082111561133657600080fd5b60006060828403121561164557600080fd5b61119d8383611242565b600181811c9082168061166357607f821691505b60208210810361125457634e487b7160e01b600052602260045260246000fd5b634e487b7160e01b600052604160045260246000fd5b604051606081016001600160401b03811182821017156116bb576116bb611683565b60405290565b604051601f8201601f191681016001600160401b03811182821017156116e9576116e9611683565b604052919050565b60006001600160401b0382111561170a5761170a611683565b50601f01601f191660200190565b600061172b611726846116f1565b6116c1565b905082815283838301111561173f57600080fd5b828260208301376000602084830101529392505050565b60006001600160401b038084111561177057611770611683565b8360051b60206117818183016116c1565b86815291850191818101903684111561179957600080fd5b865b84811015611832578035868111156117b35760008081fd5b880160603682900312156117c75760008081fd5b6117cf611699565b6117d882611356565b81526117e5868301611399565b86820152604080830135898111156117fd5760008081fd5b929092019136601f8401126118125760008081fd5b611820368435898601611718565b9082015284525091830191830161179b565b50979650505050505050565b6000808585111561184e57600080fd5b8386111561185b57600080fd5b5050820193919092039150565b6000845161187a8184602089016113de565b8201838582376000930192835250909392505050565b60208152816020820152818360408301376000818301604090810191909152601f909201601f19160101919050565b600080604083850312156118d257600080fd5b82516001600160401b038111156118e857600080fd5b8301601f810185136118f957600080fd5b8051611907611726826116f1565b81815286602083850101111561191c57600080fd5b61192d8260208301602086016113de565b60209590950151949694955050505050565b60006020828403121561195157600080fd5b8151801515811461119d57600080fd5b60008060006060848603121561197657600080fd5b83356001600160401b0381111561198c57600080fd5b8401601f8101861361199d57600080fd5b6119ac86823560208401611718565b9350506020840135915060408401356119c4816112a2565b809150509250925092565b634e487b7160e01b600052603260045260246000fd5b601f821115611a31576000816000526020600020601f850160051c81016020861015611a0e5750805b601f850160051c820191505b81811015611a2d57828155600101611a1a565b5050505b505050565b81516001600160401b03811115611a4f57611a4f611683565b611a6381611a5d845461164f565b846119e5565b602080601f831160018114611a985760008415611a805750858301515b600019600386901b1c1916600185901b178555611a2d565b600085815260208120601f198616915b82811015611ac757888601518255948401946001909101908401611aa8565b5085821015611ae55787850151600019600388901b60f8161c191681555b5050505050600190811b01905550565b600060208083018184528085518083526040925060408601915060408160051b87010184880160005b83811015611b7257888303603f190185528151805163ffffffff1684528781015161ffff16888501528601516060878501819052611b5e81860183611402565b968901969450505090860190600101611b1e565b509098975050505050505050565b63ffffffff81511682526020810151602083015260408101516040830152606081015160608301526000608082015160e06080850152611bc360e0850182611402565b905060a083015184820360a0860152611bdc8282611402565b91505060c083015184820360c0860152611bf68282611402565b95945050505050565b604081526000611c126040830185611b80565b905082151560208301529392505050565b600060408284031215611c3557600080fd5b604051604081018181106001600160401b0382111715611c5757611c57611683565b604052825181526020928301519281019290925250919050565b600060408284031215611c8357600080fd5b61119d8383611c23565b608081526000611ca06080830186611b80565b8451602084810191909152909401516040830152506001600160a01b0391909116606090910152919050565b60008082840360c0811215611ce057600080fd5b6080811215611cee57600080fd5b50611cf7611699565b8351815260208401516001600160401b0381168114611d1557600080fd5b6020820152611d278560408601611c23565b604082015291506113d58460808501611c23565b634e487b7160e01b600052601160045260246000fd5b8082018082111561054957610549611d3b565b61ffff818116838216019080821115611d7f57611d7f611d3b565b5092915050565b60008651611d98818460208b016113de565b6001600160f81b031960f888811b82169285019283526001600160f01b031960f089901b16600184015286901b1660038201528351611dde8160048401602088016113de565b0160040197965050505050505056fea2646970667358221220138ae9488b864fbe3e2780c33bb005a58f2e0dc7b3a664cef01f51c829974e3d64736f6c63430008160033",
  "devdoc": {
    "errors": {
      "OwnableInvalidOwner(address)": [
        {
          "details": "The owner is not a valid owner account. (eg. `address(0)`)"
        }
      ],
      "OwnableUnauthorizedAccount(address)": [
        {
          "details": "The caller account is not authorized to perform an operation."
        }
      ],
      "SafeCastOverflowedUintDowncast(uint8,uint256)": [
        {
          "details": "Value doesn't fit in an uint of `bits` size."
        }
      ]
    },
    "kind": "dev",
    "methods": {
      "allowInitializePath((uint32,bytes32,uint64))": {
        "details": "This indicates to the endpoint that the OApp has enabled msgs for this particular path to be received.This defaults to assuming if a peer has been set, its initialized. Can be overridden by the OApp if there is other logic to determine this.",
        "params": {
          "origin": "The origin information containing the source endpoint and sender address."
        },
        "returns": {
          "_0": "Whether the path has been initialized."
        }
      },
      "combineOptions(uint32,uint16,bytes)": {
        "details": "If there is an enforced lzReceive option: - {gasLimit: 200k, msg.value: 1 ether} AND a caller supplies a lzReceive option: {gasLimit: 100k, msg.value: 0.5 ether} - The resulting options will be {gasLimit: 300k, msg.value: 1.5 ether} when the message is executed on the remote lzReceive() function.This presence of duplicated options is handled off-chain in the verifier/executor.",
        "params": {
          "_eid": "The endpoint ID.",
          "_extraOptions": "Additional options passed by the caller.",
          "_msgType": "The OAPP message type."
        },
        "returns": {
          "_0": "options The combination of caller specified options AND enforced options."
        }
      },
      "isComposeMsgSender((uint32,bytes32,uint64),bytes,address)": {
        "details": "_origin The origin information containing the source endpoint and sender address.  - srcEid: The source chain endpoint ID.  - sender: The sender address on the src chain.  - nonce: The nonce of the message._message The lzReceive payload.Applications can optionally choose to implement separate composeMsg senders that are NOT the bridging layer.The default sender IS the OAppReceiver implementer.",
        "params": {
          "_sender": "The sender address."
        },
        "returns": {
          "_0": "isSender Is a valid sender."
        }
      },
      "lzCompose(address,bytes32,bytes,address,bytes)": {
        "details": "Handles the OFT compose message to process a deposit",
        "params": {
          "_executor": "The address of the executor",
          "_extraData": "Any extra data",
          "_from": "The origin information for the composed message",
          "_guid": "The unique identifier for the message",
          "_message": "The message payload from OFT"
        }
      },
      "lzReceive((uint32,bytes32,uint64),bytes32,bytes,address,bytes)": {
        "details": "Entry point for receiving messages or packets from the endpoint.Entry point for receiving msg/packet from the LayerZero endpoint.",
        "params": {
          "_executor": "The address of the executor for the received message.",
          "_extraData": "Additional arbitrary data provided by the corresponding executor.",
          "_guid": "The unique identifier for the received LayerZero message.",
          "_message": "The payload of the received message.",
          "_origin": "The origin information containing the source endpoint and sender address.  - srcEid: The source chain endpoint ID.  - sender: The sender address on the src chain.  - nonce: The nonce of the message."
        }
      },
      "nextNonce(uint32,bytes32)": {
        "details": "_srcEid The source endpoint ID._sender The sender address.The path nonce starts from 1. If 0 is returned it means that there is NO nonce ordered enforcement.Is required by the off-chain executor to determine the OApp expects msg execution is ordered.This is also enforced by the OApp.By default this is NOT enabled. ie. nextNonce is hardcoded to return 0.",
        "returns": {
          "nonce": "The next nonce."
        }
      },
      "oAppVersion()": {
        "returns": {
          "receiverVersion": "The version of the OAppReceiver.sol implementation.",
          "senderVersion": "The version of the OAppSender.sol implementation."
        }
      },
      "owner()": {
        "details": "Returns the address of the current owner."
      },
      "renounceOwnership()": {
        "details": "Leaves the contract without owner. It will not be possible to call `onlyOwner` functions. Can only be called by the current owner. NOTE: Renouncing ownership will leave the contract without an owner, thereby disabling any functionality that is only available to the owner."
      },
      "setDelegate(address)": {
        "details": "Only the owner/admin of the OApp can call this function.Provides the ability for a delegate to set configs, on behalf of the OApp, directly on the Endpoint contract.",
        "params": {
          "_delegate": "The address of the delegate to be set."
        }
      },
      "setEnforcedOptions((uint32,uint16,bytes)[])": {
        "details": "Sets the enforced options for specific endpoint and message type combinations.Only the owner/admin of the OApp can call this function.Provides a way for the OApp to enforce things like paying for PreCrime, AND/OR minimum dst lzReceive gas amounts etc.These enforced options can vary as the potential options/execution on the remote may differ as per the msgType. eg. Amount of lzReceive() gas necessary to deliver a lzCompose() message adds overhead you dont want to pay if you are only making a standard LayerZero message ie. lzReceive() WITHOUT sendCompose().",
        "params": {
          "_enforcedOptions": "An array of EnforcedOptionParam structures specifying enforced options."
        }
      },
      "setPeer(uint32,bytes32)": {
        "details": "Only the owner/admin of the OApp can call this function.Indicates that the peer is trusted to send LayerZero messages to this OApp.Set this to bytes32(0) to remove the peer address.Peer is a bytes32 to accommodate non-evm chains.",
        "params": {
          "_eid": "The endpoint ID.",
          "_peer": "The address of the peer to be associated with the corresponding endpoint."
        }
      },
      "transferOwnership(address)": {
        "details": "Transfers ownership of the contract to a new account (`newOwner`). Can only be called by the current owner."
      }
    },
    "version": 1
  },
  "userdoc": {
    "kind": "user",
    "methods": {
      "allowInitializePath((uint32,bytes32,uint64))": {
        "notice": "Checks if the path initialization is allowed based on the provided origin."
      },
      "combineOptions(uint32,uint16,bytes)": {
        "notice": "Combines options for a given endpoint and message type."
      },
      "endpoint()": {
        "notice": "Retrieves the LayerZero endpoint associated with the OApp."
      },
      "isComposeMsgSender((uint32,bytes32,uint64),bytes,address)": {
        "notice": "Indicates whether an address is an approved composeMsg sender to the Endpoint."
      },
      "nextNonce(uint32,bytes32)": {
        "notice": "Retrieves the next nonce for a given source endpoint and sender address."
      },
      "oAppVersion()": {
        "notice": "Retrieves the OApp version information."
      },
      "peers(uint32)": {
        "notice": "Retrieves the peer (OApp) associated with a corresponding endpoint."
      },
      "setDelegate(address)": {
        "notice": "Sets the delegate address for the OApp."
      },
      "setPeer(uint32,bytes32)": {
        "notice": "Sets the peer address (OApp instance) for a corresponding endpoint."
      }
    },
    "version": 1
  },
  "storageLayout": {
    "storage": [
      {
        "astId": 5399,
        "contract": "contracts/OOperatorV2.sol:OOperatorV2",
        "label": "_owner",
        "offset": 0,
        "slot": "0",
        "type": "t_address"
      },
      {
        "astId": 2532,
        "contract": "contracts/OOperatorV2.sol:OOperatorV2",
        "label": "peers",
        "offset": 0,
        "slot": "1",
        "type": "t_mapping(t_uint32,t_bytes32)"
      },
      {
        "astId": 3156,
        "contract": "contracts/OOperatorV2.sol:OOperatorV2",
        "label": "enforcedOptions",
        "offset": 0,
        "slot": "2",
        "type": "t_mapping(t_uint32,t_mapping(t_uint16,t_bytes_storage))"
      },
      {
        "astId": 8696,
        "contract": "contracts/OOperatorV2.sol:OOperatorV2",
        "label": "ousdt",
        "offset": 0,
        "slot": "3",
        "type": "t_contract(OFT)4294"
      },
      {
        "astId": 8699,
        "contract": "contracts/OOperatorV2.sol:OOperatorV2",
        "label": "superstate",
        "offset": 0,
        "slot": "4",
        "type": "t_contract(Superstate)9146"
      }
    ],
    "types": {
      "t_address": {
        "encoding": "inplace",
        "label": "address",
        "numberOfBytes": "20"
      },
      "t_bytes32": {
        "encoding": "inplace",
        "label": "bytes32",
        "numberOfBytes": "32"
      },
      "t_bytes_storage": {
        "encoding": "bytes",
        "label": "bytes",
        "numberOfBytes": "32"
      },
      "t_contract(OFT)4294": {
        "encoding": "inplace",
        "label": "contract OFT",
        "numberOfBytes": "20"
      },
      "t_contract(Superstate)9146": {
        "encoding": "inplace",
        "label": "contract Superstate",
        "numberOfBytes": "20"
      },
      "t_mapping(t_uint16,t_bytes_storage)": {
        "encoding": "mapping",
        "key": "t_uint16",
        "label": "mapping(uint16 => bytes)",
        "numberOfBytes": "32",
        "value": "t_bytes_storage"
      },
      "t_mapping(t_uint32,t_bytes32)": {
        "encoding": "mapping",
        "key": "t_uint32",
        "label": "mapping(uint32 => bytes32)",
        "numberOfBytes": "32",
        "value": "t_bytes32"
      },
      "t_mapping(t_uint32,t_mapping(t_uint16,t_bytes_storage))": {
        "encoding": "mapping",
        "key": "t_uint32",
        "label": "mapping(uint32 => mapping(uint16 => bytes))",
        "numberOfBytes": "32",
        "value": "t_mapping(t_uint16,t_bytes_storage)"
      },
      "t_uint16": {
        "encoding": "inplace",
        "label": "uint16",
        "numberOfBytes": "2"
      },
      "t_uint32": {
        "encoding": "inplace",
        "label": "uint32",
        "numberOfBytes": "4"
      }
    }
  }
}