{
  "address": "0x9043fDeaB665C0435c85f4961f3aCFe55559f398",
  "abi": [
    {
      "inputs": [
        {
          "internalType": "address",
          "name": "_ousdt",
          "type": "address"
        },
        {
          "internalType": "address",
          "name": "_owner",
          "type": "address"
        }
      ],
      "stateMutability": "nonpayable",
      "type": "constructor"
    },
    {
      "inputs": [
        {
          "internalType": "address",
          "name": "owner",
          "type": "address"
        }
      ],
      "name": "OwnableInvalidOwner",
      "type": "error"
    },
    {
      "inputs": [
        {
          "internalType": "address",
          "name": "account",
          "type": "address"
        }
      ],
      "name": "OwnableUnauthorizedAccount",
      "type": "error"
    },
    {
      "anonymous": false,
      "inputs": [
        {
          "indexed": true,
          "internalType": "address",
          "name": "from",
          "type": "address"
        },
        {
          "indexed": false,
          "internalType": "uint256",
          "name": "amount",
          "type": "uint256"
        }
      ],
      "name": "Deposited",
      "type": "event"
    },
    {
      "anonymous": false,
      "inputs": [
        {
          "indexed": true,
          "internalType": "address",
          "name": "previousOwner",
          "type": "address"
        },
        {
          "indexed": true,
          "internalType": "address",
          "name": "newOwner",
          "type": "address"
        }
      ],
      "name": "OwnershipTransferred",
      "type": "event"
    },
    {
      "anonymous": false,
      "inputs": [
        {
          "indexed": true,
          "internalType": "address",
          "name": "to",
          "type": "address"
        },
        {
          "indexed": false,
          "internalType": "uint256",
          "name": "amount",
          "type": "uint256"
        }
      ],
      "name": "Withdrawn",
      "type": "event"
    },
    {
      "inputs": [
        {
          "internalType": "uint256",
          "name": "amount",
          "type": "uint256"
        }
      ],
      "name": "deposit",
      "outputs": [],
      "stateMutability": "nonpayable",
      "type": "function"
    },
    {
      "inputs": [],
      "name": "getBalance",
      "outputs": [
        {
          "internalType": "uint256",
          "name": "",
          "type": "uint256"
        }
      ],
      "stateMutability": "view",
      "type": "function"
    },
    {
      "inputs": [],
      "name": "ousdt",
      "outputs": [
        {
          "internalType": "contract IERC20",
          "name": "",
          "type": "address"
        }
      ],
      "stateMutability": "view",
      "type": "function"
    },
    {
      "inputs": [],
      "name": "owner",
      "outputs": [
        {
          "internalType": "address",
          "name": "",
          "type": "address"
        }
      ],
      "stateMutability": "view",
      "type": "function"
    },
    {
      "inputs": [],
      "name": "renounceOwnership",
      "outputs": [],
      "stateMutability": "nonpayable",
      "type": "function"
    },
    {
      "inputs": [
        {
          "internalType": "address",
          "name": "newOwner",
          "type": "address"
        }
      ],
      "name": "transferOwnership",
      "outputs": [],
      "stateMutability": "nonpayable",
      "type": "function"
    },
    {
      "inputs": [
        {
          "internalType": "uint256",
          "name": "amount",
          "type": "uint256"
        }
      ],
      "name": "withdraw",
      "outputs": [],
      "stateMutability": "nonpayable",
      "type": "function"
    }
  ],
  "transactionHash": "0xcdad30c4f6f7ef3378903afb0a3e9c466617ea0ee40dcf99f84a681de3dfee4d",
  "args": [
    "0x32f5F1469D5Ce1Fa80F7E06F8360DDe0d6E63875",
    "0xBbBBa9Ebe50f9456E106e6ef2992179182889999"
  ],
  "numDeployments": 1,
  "solcInputHash": "5dd380e9dc1e96fa2ad6a01342215aa5",
  "bytecode": "0x608060405234801561001057600080fd5b5060405161078038038061078083398101604081905261002f916100fa565b806001600160a01b03811661005e57604051631e4fbdf760e01b81526000600482015260240160405180910390fd5b6100678161008e565b5050600180546001600160a01b0319166001600160a01b039290921691909117905561012d565b600080546001600160a01b038381166001600160a01b0319831681178455604051919092169283917f8be0079c531659141344cd1fd0a4f28419497f9722a3daafe3b4186f6b6457e09190a35050565b80516001600160a01b03811681146100f557600080fd5b919050565b6000806040838503121561010d57600080fd5b610116836100de565b9150610124602084016100de565b90509250929050565b6106448061013c6000396000f3fe608060405234801561001057600080fd5b506004361061007d5760003560e01c8063715018a61161005b578063715018a6146100dd5780638da5cb5b146100e5578063b6b55f25146100f6578063f2fde38b1461010957600080fd5b806312065fe0146100825780632e1a7d4d1461009d5780634c7e155b146100b2575b600080fd5b61008a61011c565b6040519081526020015b60405180910390f35b6100b06100ab36600461058a565b61018e565b005b6001546100c5906001600160a01b031681565b6040516001600160a01b039091168152602001610094565b6100b0610380565b6000546001600160a01b03166100c5565b6100b061010436600461058a565b610394565b6100b06101173660046105a3565b6104cf565b6001546040516370a0823160e01b81523060048201526000916001600160a01b0316906370a0823190602401602060405180830381865afa158015610165573d6000803e3d6000fd5b505050506040513d601f19601f8201168201806040525081019061018991906105d3565b905090565b600081116101e35760405162461bcd60e51b815260206004820152601d60248201527f416d6f756e74206d7573742062652067726561746572207468616e203000000060448201526064015b60405180910390fd5b6001546040516370a0823160e01b815230600482015282916001600160a01b0316906370a0823190602401602060405180830381865afa15801561022b573d6000803e3d6000fd5b505050506040513d601f19601f8201168201806040525081019061024f91906105d3565b10156102945760405162461bcd60e51b8152602060048201526014602482015273496e73756666696369656e742062616c616e636560601b60448201526064016101da565b60015460405163a9059cbb60e01b8152336004820152602481018390526001600160a01b039091169063a9059cbb906044016020604051808303816000875af11580156102e5573d6000803e3d6000fd5b505050506040513d601f19601f8201168201806040525081019061030991906105ec565b6103475760405162461bcd60e51b815260206004820152600f60248201526e151c985b9cd9995c8819985a5b1959608a1b60448201526064016101da565b60405181815233907f7084f5476618d8e60b11ef0d7d3f06914655adb8793e28ff7f018d4c76d505d5906020015b60405180910390a250565b61038861050d565b610392600061053a565b565b600081116103e45760405162461bcd60e51b815260206004820152601d60248201527f416d6f756e74206d7573742062652067726561746572207468616e203000000060448201526064016101da565b6001546040516323b872dd60e01b8152336004820152306024820152604481018390526001600160a01b03909116906323b872dd906064016020604051808303816000875af115801561043b573d6000803e3d6000fd5b505050506040513d601f19601f8201168201806040525081019061045f91906105ec565b61049d5760405162461bcd60e51b815260206004820152600f60248201526e151c985b9cd9995c8819985a5b1959608a1b60448201526064016101da565b60405181815233907f2da466a7b24304f47e87fa2e1e5a81b9831ce54fec19055ce277ca2f39ba42c490602001610375565b6104d761050d565b6001600160a01b03811661050157604051631e4fbdf760e01b8152600060048201526024016101da565b61050a8161053a565b50565b6000546001600160a01b031633146103925760405163118cdaa760e01b81523360048201526024016101da565b600080546001600160a01b038381166001600160a01b0319831681178455604051919092169283917f8be0079c531659141344cd1fd0a4f28419497f9722a3daafe3b4186f6b6457e09190a35050565b60006020828403121561059c57600080fd5b5035919050565b6000602082840312156105b557600080fd5b81356001600160a01b03811681146105cc57600080fd5b9392505050565b6000602082840312156105e557600080fd5b5051919050565b6000602082840312156105fe57600080fd5b815180151581146105cc57600080fdfea2646970667358221220c748a0d39ae7bf5fd7b3e6c791e2cdf97629596fdd0112a8bc12a16ba9ae955964736f6c63430008160033",
  "devdoc": {
    "details": "Contract for managing OUSDT deposits and withdrawals on Sepolia",
    "errors": {
      "OwnableInvalidOwner(address)": [
        {
          "details": "The owner is not a valid owner account. (eg. `address(0)`)"
        }
      ],
      "OwnableUnauthorizedAccount(address)": [
        {
          "details": "The caller account is not authorized to perform an operation."
        }
      ]
    },
    "kind": "dev",
    "methods": {
      "deposit(uint256)": {
        "details": "Deposits OUSDT from caller to this contract",
        "params": {
          "amount": "The amount of OUSDT to deposit"
        }
      },
      "getBalance()": {
        "details": "Returns the balance of OUSDT in this contract"
      },
      "owner()": {
        "details": "Returns the address of the current owner."
      },
      "renounceOwnership()": {
        "details": "Leaves the contract without owner. It will not be possible to call `onlyOwner` functions. Can only be called by the current owner. NOTE: Renouncing ownership will leave the contract without an owner, thereby disabling any functionality that is only available to the owner."
      },
      "transferOwnership(address)": {
        "details": "Transfers ownership of the contract to a new account (`newOwner`). Can only be called by the current owner."
      },
      "withdraw(uint256)": {
        "details": "Withdraws OUSDT from this contract to the caller",
        "params": {
          "amount": "The amount of OUSDT to withdraw"
        }
      }
    },
    "title": "Superstate",
    "version": 1
  },
  "userdoc": {
    "kind": "user",
    "methods": {},
    "version": 1
  },
  "storageLayout": {
    "storage": [
      {
        "astId": 7801,
        "contract": "contracts/Superstate.sol:Superstate",
        "label": "_owner",
        "offset": 0,
        "slot": "0",
        "type": "t_address"
      },
      {
        "astId": 14496,
        "contract": "contracts/Superstate.sol:Superstate",
        "label": "ousdt",
        "offset": 0,
        "slot": "1",
        "type": "t_contract(IERC20)8760"
      }
    ],
    "types": {
      "t_address": {
        "encoding": "inplace",
        "label": "address",
        "numberOfBytes": "20"
      },
      "t_contract(IERC20)8760": {
        "encoding": "inplace",
        "label": "contract IERC20",
        "numberOfBytes": "20"
      }
    }
  }
}